S0140000637573746F6D2063686172732E7372656344
S11300000C942A000C943F000C943F000C943F0085
S11300100C943F000C943F000C943F000C943F0060
S11300200C943F000C943F000C943F000C943F0050
S11300300C943F000C943F000C943F000C943F0040
S11300400C943F000C943F000C943F000C943F0030
S11300500C943F0011241FBECFE5D8E0DEBFCDBF16
S113006010E0A0E6B0E0E8ECF2E002C005900D92EA
S1130070AE3DB107D9F70E94E7000C9462010C94DD
S1130080000082BB85B38E7F85BB85B38D7F85BB26
S1130090000085B3846085BB000085B38B7F85BB7E
S11300A083EF91E00197F1F700C00000089582BB4F
S11300B085B3816085BB85B38D7F85BB000085B327
S11300C0846085BB000085B38B7F85BB83EF91E0A3
S11300D00197F1F700C0000008958FEF84BB81BB46
S11300E083ED90E30197F1F700C0000082E00E94E5
S11300F0410088E30E9441008FE00E94410086E0B5
S11301000E94410081E00E944100089581E00E9424
S1130110410082E00E94410008950F931F93CF9302
S1130120DF938C01C0E0D0E003C00E945700219609
S1130130F801EC0FFD1F80818111F7CFDF91CF9182
S11301401F910F9108950F931F93CF93DF9380E432
S11301500E944100C0E0D0E01BC0FE01EE0FFF1F73
S1130160EE0FFF1FEE0FFF1FEC1BFD0BE00FF11F47
S1130170EE0FFF1FE359FF4F80810E9457000F5F6E
S11301801F4F02C000E010E00830110534F321963F
S1130190C830D105BCF380E80E944100DF91CF91C3
S11301A01F910F910895811108C0603130F4862F9A
S11301B08F7080680E9441000895813039F4603165
S11301C028F4862F8F70806C0E94410008950E944D
S11301D06D000E94A3000E94860080E690E00E94C9
S11301E08D002FE38DE093E0215080409040E1F7B3
S11301F000C0000060E081E00E94D30080E00E9423
S1130200570062E081E00E94D30081E00E94570021
S113021064E081E00E94D30082E00E94570065E020
S113022081E00E94D30083E00E94570067E081E0F0
S11302300E94D30084E00E94570069E081E00E949C
S1130240D30085E00E9457006BE081E00E94D30058
S113025086E00E9457006DE081E00E94D30087E0B1
S11302600E9457002FEB87E299E021508040904094
S1130270E1F700C00000C0E0D0E00DC088E10E94BA
S113028041002FE58AEE90E0215080409040E1F754
S113029000C000002196CF30D10584F3C0E0D0E047
S11302A00DC08CE10E9441002FE58AEE90E02150C0
S11302B080409040E1F700C000002196CE31D10586
S10B02C084F3FFCFF894FFCF93
S11302C8437573746F6D204368617273000E001B6D
S11302D800110011001F001F001F000A000A001F60
S11302E8001F000E000E0004001F0015000E00047D
S11302F800040004000400010001000500150015B5
S113030800150015000A000A001F00110011000E54
S1130318000400040016000F0004000F0016000477
S11303280004000E000E000E001F0000000E000363
S11103380007000D0009000B001B0018000058
S9030000FC
