:100000000C942A000C943F000C943F000C943F0089
:100010000C943F000C943F000C943F000C943F0064
:100020000C943F000C943F000C943F000C943F0054
:100030000C943F000C943F000C943F000C943F0044
:100040000C943F000C943F000C943F000C943F0034
:100050000C943F0011241FBECFE5D8E0DEBFCDBF1A
:1000600010E0A0E6B0E0E6E6F3E002C005900D92F5
:10007000AC37B107D9F70E9459010C94B1010C9427
:10008000000095B39F70282F207F922B95BB95B3CE
:100090009E7F95BB95B3946095BB32E03A95F1F79E
:1000A00000C095B39B7F95BBEFE8F1E03197F1F786
:1000B00000C0000025B3F0E18F9FC0011124922FF2
:1000C0009F70892B85BB85B3846085BB32E03A95F0
:1000D000F1F700C085B38B7F85BB8FE99FE0019767
:1000E000F1F700C00000089595B39F70282F207F7E
:1000F000922B95BB95B3916095BB95B3946095BBDE
:1001000032E03A95F1F700C095B39B7F95BBEFE8DD
:10011000F1E03197F1F700C0000025B3F0E18F9FC7
:10012000C0011124922F9F70892B85BB85B38460F9
:1001300085BB32E03A95F1F700C085B38B7F85BB74
:100140008FE99FE00197F1F700C0000008958FEF5D
:1001500084BB8FE39CE90197F1F700C0000082E0C7
:100160000E94410088E20E9441008CE00E94410010
:1001700086E00E94410081E00E94410008950F93B3
:100180001F93CF93DF938C01C0E0D0E003C00E94A7
:1001900074002196F801EC0FFD1F80818111F7CFCB
:1001A000DF91CF911F910F910895CF93DF93EA01D3
:1001B000811108C0603130F4862F8F7080680E94F2
:1001C000410009C0813039F4603128F4862F8F70E6
:1001D000806C0E944100CE010E94BF00DF91CF9150
:1001E000089580EF81BB8FE082BB8FE39CE901978C
:1001F000F1F700C0000080B38F708F30B1F39FEF34
:1002000029EF80E0915020408040E1F700C00000DD
:1002100080B38F708F3049F39FEE92BB000090B394
:100220009F709F30B9F49FED92BB000090B39F7018
:100230009F3091F49FEB92BB000090B39F709F3072
:1002400069F49FE792BB000090B39F709F3049F222
:10025000E0E005C0E3E003C0E2E001C0E1E08E3091
:1002600049F4F0E0EE0FFF1FEE0FFF1FE05AFF4FC3
:10027000838108958D3049F4F0E0EE0FFF1FEE0FFB
:10028000FF1FE05AFF4F828108958B3049F4F0E060
:10029000EE0FFF1FEE0FFF1FE05AFF4F8181089501
:1002A000F0E0EE0FFF1FEE0FFF1FE05AFF4F8081BF
:1002B0000895CF93DF93CDB7DEB761970FB6F8946B
:1002C000DEBF0FBECDBF8FEF84BB0E94A70080E8CA
:1002D0000E94410080E790E00E94BF001A820E94C5
:1002E000F10089838032D9F38823C9F3833429F458
:1002F0001A8281E00E9441001AC0DE011296FD01BF
:1003000001900020E9F73197EA1BFB0B3F9778F447
:1003100041E050E0BE016F5F7F4FCD010E94A1011F
:10032000AE014E5F5F4F60E081E00E94D5002FE795
:1003300088E391E0215080409040E1F700C0000048
:10034000CECFFB01DC010D900020E9F71197415061
:10035000504028F0019000200D92C9F708951C929A
:060360000895F894FFCFA0
:100366003738392F3435362A3132332D43303D2B49
:0C03760048656C6C6F2C204C4344210047
:00000001FF
