:100000000C942A000C9436000C9434000C943400A8
:100010000C9434000C9434000C9434000C94340090
:100020000C9434000C9434000C9434000C94340080
:100030000C9434000C9434000C9434000C94340070
:100040000C9434000C9434000C9434000C94340060
:100050000C94340011241FBECFE5D8E0DEBFCDBF25
:100060000E9453000C9481000C9400001F920F9288
:100070000FB60F9211242F938F939F9395B381E026
:10008000892785BB2FE788E391E02150804090408D
:10009000E1F700C000009F918F912F910F900FBE4C
:1000A0000F901F90189587E08ABB81E084BB11BA3E
:1000B00084E082BB80E48BBF83E085BF789481E0DD
:1000C0008BBB2FEF81EE94E0215080409040E1F710
:1000D00000C0000082E08BBB2FEF81EE94E0215046
:1000E00080409040E1F700C0000084E08BBB2FEF20
:1000F00081EE94E0215080409040E1F700C0000084
:06010000DECFF894FFCFF2
:00000001FF
