S01700004763634170706C69636174696F6E312E737265635B
S11300000C9434000C9449000C9449000C9449005D
S11300100C9449000C9449000C9449000C94490038
S11300200C9449000C9449000C9449000C94490028
S11300300C9449000C9449000C9449000C94490018
S11300400C9449000C9449000C9449000C94490008
S11300500C9449000C9449000C9449000C944900F8
S11300600C9449000C94490011241FBECFEFD8E032
S1130070DEBFCDBF11E0A0E0B1E0EAE1F1E002C0F3
S113008005900D92AA30B107D9F70E9473000C9421
S11300908B000C940000CF93DF93CDB7DEB72A9783
S11300A00FB6F894DEBF0FBECDBF2AE0E0E0F1E06A
S11300B0DE01119601900D922A95E1F78A3091059F
S11300C04CF4E1E0F0E0EC0FFD1FE80FF91F808134
S11300D080958BB92A960FB6F894DEBF0FBECDBFBC
S11300E0DF91CF9108958AB18FEF8AB91BB8C0E030
S11300F0D0E00DC0CE010E944B002FEF80E792E0CC
S1130100215080409040E1F700C000002196CA30A1
S10D0110D10584F3ECCFF894FFCF7F
S10D011AC0F9A4B0999282F8809015
S9030000FC
