:100000000C942A000C9434000C9434000C943400AA
:100010000C9434000C9434000C9434000C94340090
:100020000C9434000C9434000C9434000C94340080
:100030000C9434000C9434000C9434000C94340070
:100040000C9434000C9434000C9434000C94340060
:100050000C94340011241FBECFE5D8E0DEBFCDBF25
:100060000E9436000C9446000C94000088E087BB88
:1000700098B388E0892788BB2FEF80E792E0215072
:1000800080409040E1F700C00000F2CFF894FFCF2D
:00000001FF
