:100000000C942A000C9434000C9434000C943400AA
:100010000C9434000C9434000C9434000C94340090
:100020000C9434000C9434000C9434000C94340080
:100030000C9434000C9434000C9434000C94340070
:100040000C9434000C9434000C9434000C94340060
:100050000C94340011241FBECFE5D8E0DEBFCDBF25
:100060000E9451000C9481000C94000084B38760BE
:1000700084BB089595B321E030E002C0220F331F06
:100080008A95E2F7292B25BB089595B321E030E04E
:1000900002C0220F331F8A95E2F72095292325BB42
:1000A00008950E94360080E00E943A002FEB87E21C
:1000B00099E0215080409040E1F700C0000080E0CE
:1000C0000E94450081E00E943A002FEB87E299E010
:1000D000215080409040E1F700C0000081E00E9484
:1000E000450082E00E943A002FEB87E299E0215020
:1000F00080409040E1F700C0000082E00E9445008F
:06010000D2CFF894FFCFFE
:00000001FF
