S01300004C436420646973706C61792E7372656308
S11300000C942A000C943F000C943F000C943F0085
S11300100C943F000C943F000C943F000C943F0060
S11300200C943F000C943F000C943F000C943F0050
S11300300C943F000C943F000C943F000C943F0040
S11300400C943F000C943F000C943F000C943F0030
S11300500C943F0011241FBECFE5D8E0DEBFCDBF16
S113006010E0A0E6B0E0E0E5F1E002C005900D92FA
S1130070A436B107D9F70E949F000C94A6000C94F3
S1130080000082BB82B38E7F82BB82B3826082BB5C
S113009082E08A95F1F700C082B38D7F82BB8FE640
S11300A097E10197F1F700C0000008958FEF81BB3D
S11300B081BB8FE39CE90197F1F700C0000088E35E
S11300C090E00E9441008CE090E00E94410086E0B4
S11300D090E00E94410081E090E00E94410080E8AD
S11300E090E00E944100089582BB82B3816082BB8C
S11300F082B3826082BB82E08A95F1F700C082B34A
S11301008D7F82BB8FEC97E00197F1F700C0000070
S113011008950F931F93CF93DF938C01C0E0D0E039
S113012003C00E9474002196F801EC0FFD1F80812A
S11301308111F7CFDF91CF911F910F9108950E9404
S1130140560080E690E00E948900FFCFF894FFCF2C
S10701504865790081
S9030000FC
