S016000054726166666963206C69676874732E73726563A4
S11300000C942A000C9434000C9434000C943400A6
S11300100C9434000C9434000C9434000C9434008C
S11300200C9434000C9434000C9434000C9434007C
S11300300C9434000C9434000C9434000C9434006C
S11300400C9434000C9434000C9434000C9434005C
S11300500C94340011241FBECFE5D8E0DEBFCDBF21
S11300600E9436000C9469000C94000089E487BB5C
S113007098B381E0982798BB2FEF39E698E1215097
S113008030409040E1F700C0000098B3892788BB56
S113009098B388E0982798BB2FEF34E39CE0215075
S11300A030409040E1F700C0000098B3892788BB36
S11300B098B380E4982798BB2FEF39E698E1215054
S11300C030409040E1F700C0000098B3892788BB16
S10900D0CFCFF894FFCF2E
S9030000FC
