S01600006C6F636B5F696E746572727570742E7372656319
S11300000C942A000C9449000C9474000C949F00E6
S11300100C9447000C9447000C9447000C94470040
S11300200C9447000C9447000C9447000C94470030
S11300300C9447000C9447000C9447000C94470020
S11300400C9447000C9447000C9447000C94470010
S11300500C94470011241FBECFE5D8E0DEBFCDBF0E
S113006010E0A0E6B0E0E8E5F3E002C005900D92F0
S1130070A636B107D9F720E0A6E6B0E001C01D928C
S1130080AE36B207E1F70E9453010C94AA010C9416
S113009000001F920F920FB60F9211242F933F93DB
S11300A08F939F93EF93FF9380916C0090916D00D9
S11300B08330910574F4FC01EE0FFF1FEA59FF4FE2
S11300C021E030E031832083019690936D0080938A
S11300D06C00FF91EF919F918F913F912F910F9021
S11300E00FBE0F901F9018951F920F920FB60F928C
S11300F011242F933F938F939F93EF93FF938091BA
S11301006C0090916D008330910574F4FC01EE0F46
S1130110FF1FEA59FF4F22E030E03183208301962C
S113012090936D0080936C00FF91EF919F918F915C
S11301303F912F910F900FBE0F901F9018951F9213
S11301400F920FB60F9211242F933F938F939F9387
S1130150EF93FF9380916C0090916D008330910533
S113016074F4FC01EE0FFF1FEA59FF4F23E030E067
S113017031832083019690936D0080936C00FF91EE
S1130180EF919F918F913F912F910F900FBE0F9000
S11301901F90189581E085BB2FEF34E39CE021503C
S11301A030409040E1F700C0000015BA2FEF34E36F
S11301B09CE0215030409040E1F700C0000085BB36
S11301C02FEF34E39CE0215030409040E1F700C031
S11301D0000015BA2FEF34E39CE0215030409040EA
S11301E0E1F700C0000085BB2FEF34E38CE0215021
S11301F030408040E1F700C0000015BA9FEF24E3CF
S11302003CE0915020403040E1F700C000000895E8
S113021082E085BB2FEF34E39CE0215030409040D6
S1130220E1F700C0000015BA2FEF34E39CE0215041
S113023030409040E1F700C0000085BB2FEF34E36D
S11302409CE0215030409040E1F700C0000015BA16
S11302502FEF34E39CE0215030409040E1F700C0A0
S1130260000085BB2FEF34E38CE021503040804008
S1130270E1F700C0000015BA9FEF24E33CE0915081
S113028020403040E1F700C00000089510926D0056
S113029010926C00E6E6F0E0118210821382128262
S11302A015821482089517BA84E088BB11BA8CE0D1
S11302B082BB9FE194BB90EE9BBF93E095BF85BF4B
S11302C080E484BF789480916C0090916D008230BA
S11302D0910549F08330910551F0019761F485B39C
S11302E0846085BB09C085B3886085BB05C085B3C0
S11302F0806185BB01C015BA80916C0090916D003E
S1130300039709F715C0C901880F991FFC01E05A2A
S1130310FF4F40815181FC01EA59FF4F8081918157
S11303204817590711F46F5F7F4F2F5F3F4F04C089
S113033020E030E060E070E02330310524F36330E6
S1130340710519F40E94CA0002C00E9408010E94AB
S10B03504601B9CFF894FFCF78
S109035801000100010098
S9030000FC
