:100000000C942A000C943F000C943F000C943F0089
:100010000C943F000C943F000C943F000C943F0064
:100020000C943F000C943F000C943F000C943F0054
:100030000C943F000C943F000C943F000C943F0044
:100040000C943F000C943F000C943F000C943F0034
:100050000C943F0011241FBECFE5D8E0DEBFCDBF1A
:1000600010E0A0E6B0E0EEEBF0E002C005900D92EB
:10007000AA36B107D9F70E9448000C945D000C9491
:100080000000E82FF0E0E05AFF4F808182BB089526
:100090008FEF81BBC9E001C0C9E08C2F0E944100F5
:1000A0002FE38DE093E0215080409040E1F700C0C5
:0E00B0000000CC2389F3C150F0CFF894FFCFAD
:0A00BE003F065B4F666D7D077F6F04
:00000001FF
