:100000000C942A000C9434000C9434000C943400AA
:100010000C9434000C9434000C9434000C94340090
:100020000C9434000C9434000C9434000C94340080
:100030000C9434000C9434000C9434000C94340070
:100040000C9434000C9434000C9434000C94340060
:100050000C94340011241FBECFE5D8E0DEBFCDBF25
:100060000E9462000C94A9000C94000020E030E093
:100070000FC092B381E0892782BB4FE788E391E00C
:10008000415080409040E1F700C000002F5F3F4F9B
:100090002430310574F3089520E030E00FC092B3AE
:1000A00082E0892782BB4FE788E391E0415080409E
:1000B0009040E1F700C000002F5F3F4F2430310532
:1000C00074F3089517BA8FE084BB93E091BB88BBAB
:1000D00086B390E08095909583FF09C085B3811128
:1000E00006C00E94360085B3886085BB02C00E94AE
:1000F0004C0086B390E08095909582FF09C085B34F
:10010000883031F40E94360085B3846085BB02C01C
:100110000E944C0086B390E08095909581FF09C0C5
:1001200085B38C3031F40E94360085B3826085BB84
:1001300002C00E944C00B09909C085B38E3031F4E2
:100140000E94360085B3816085BBC2CF0E944C00FF
:06015000BFCFF894FFCFC1
:00000001FF
