S01700004E6F746573206578636572736963652E7372656329
S11300000C942A000C943F000C943F000C943F0085
S11300100C943F000C943F000C943F000C943F0060
S11300200C943F000C943F000C943F000C943F0050
S11300300C943F000C943F000C943F000C943F0040
S11300400C943F000C943F000C943F000C943F0030
S11300500C943F0011241FBECFE5D8E0DEBFCDBF16
S113006010E0A0E6B0E0E4E0F1E002C005900D92FB
S1130070AA36B107D9F70E9468000C9480000C944A
S11300800000CF93DF93CDB7DEB72A970FB6F8946D
S1130090DEBF0FBECDBF2AE0E0E6F0E0DE01119640
S11300A001900D922A95E1F78A30910544F4E1E03C
S11300B0F0E0EC0FFD1FE80FF91F808182BB2A9648
S11300C00FB6F894DEBF0FBECDBFDF91CF91089578
S11300D081B38FEF81BB82BBC0E0D0E00DC0CE0105
S11300E00E9441002FE38DE093E021508040904036
S11300F0E1F700C000002196CA30D10584F3ECCFAB
S1070100F894FFCF9D
S10D01043F065B4F666D7D077F6FB9
S9030000FC
