S01C0000456D6265646465642068656C6C6F20776F726C642E7372656382
S11300000C942A000C9434000C9434000C943400A6
S11300100C9434000C9434000C9434000C9434008C
S11300200C9434000C9434000C9434000C9434007C
S11300300C9434000C9434000C9434000C9434006C
S11300400C9434000C9434000C9434000C9434005C
S11300500C94340011241FBECFE5D8E0DEBFCDBF21
S11300600E9436000C9451000C9400008FEF87BB63
S113007088B3886088BB2FEF80E792E021508040EE
S11300809040E1F700C0000088B3877F88BB2FEF62
S113009080E792E0215080409040E1F700C00000EA
S10900A0E7CFF894FFCF46
S9030000FC
