:100000000C9434000C9449000C9449000C94490061
:100010000C9449000C9449000C9449000C9449003C
:100020000C9449000C9449000C9449000C9449002C
:100030000C9449000C9449000C9449000C9449001C
:100040000C9449000C9449000C9449000C9449000C
:100050000C9449000C9449000C9449000C944900FC
:100060000C9449000C94490011241FBECFEFD8E036
:10007000DEBFCDBF11E0A0E0B1E0E8E1F1E002C0F9
:1000800005900D92AA30B107D9F70E9472000C9426
:100090008A000C940000CF93DF93CDB7DEB72A9788
:1000A0000FB6F894DEBF0FBECDBF2AE0E0E0F1E06E
:1000B000DE01119601900D922A95E1F78A309105A3
:1000C00044F4E1E0F0E0EC0FFD1FE80FF91F808140
:1000D0008BB92A960FB6F894DEBF0FBECDBFDF9165
:1000E000CF9108958AB18FEF8AB98BB9C0E0D0E083
:1000F0000DC0CE010E944B002FEF80E792E021500F
:1001000080409040E1F700C000002196CA30D10540
:0801100084F3ECCFF894FFCF5B
:0A011800C0F9A4B0999282F880901B
:00000001FF
