:100000000C942A000C943F000C943F000C943F0089
:100010000C943F000C943F000C943F000C943F0064
:100020000C943F000C943F000C943F000C943F0054
:100030000C943F000C943F000C943F000C943F0044
:100040000C943F000C943F000C943F000C943F0034
:100050000C943F0011241FBECFE5D8E0DEBFCDBF1A
:1000600010E0A0E6B0E0E6E9F1E002C005900D92F4
:10007000AC36B107D9F70E9478000C94C9000C94F3
:1000800000001ABA87E886B980E487B9089597B165
:10009000892B87B986B1806486B9349BFECF8AE10B
:1000A0008A95F1F700C024B185B190E0982F882798
:1000B000820F911D089587B38FEF87BB88BB94B3E0
:1000C00084BB85BB91B381BB82BB0895805A9F4F8F
:1000D000FC01808188BB0895805A9F4FFC0180817C
:1000E00085BB0895805A9F4FFC01808182BB089593
:1000F0000E9441000E945B0080E090E00E94470067
:10010000FC012AE030E0B9010E94A100EB01CF011F
:1001100068EE73E00E94A100FB01CE0164E670E08E
:100120000E94A100B9010E94A1008B01EC01CF0146
:100130000E946600C8010E946C00CE010E947200FD
:10014000DBCF97FB072E16F4009407D077FD09D07C
:100150000E94B50007FC05D03EF4909581959F4F15
:100160000895709561957F4F0895AA1BBB1B51E1BF
:1001700007C0AA1FBB1FA617B70710F0A61BB70B17
:10018000881F991F5A95A9F780959095BC01CD01BC
:060190000895F894FFCF72
:0C0196003F065B4F666D7D077F6F000029
:00000001FF
